:020000040800F2
:1000000000000220F13F0008210200082F02000832
:10001000350200083B020008410200080000000011
:10002000000000000000000000000000470200087F
:100030005502000800000000630200087102000879
:100040003D4000083D4000083D4000083D4000089C
:100050003D4000083D400008211E00083D1E0008EC
:10006000591E0008751E0008911E0008992E0008F0
:10007000092F0008812F0008F92F000871300008AF
:10008000E1300008593100083D4000080000000040
:10009000000000000000000000000000AD1E00088D
:1000A0003D4000083D4000083D4000083D4000083C
:1000B0003D400008E1270008012800083D400008F5
:1000C0003D4000083D4000083D400008292300084D
:1000D0003D40000811090008A509000800000000C3
:1000E0002D1F00083D4000083D40000800000000B2
:1000F000000000000000000000000000D5310008F2
:10010000000000003D400008212800083D40000894
:1001100000000000000000000000000000000000DF
:1001200051320008C132000839330008B1330008E9
:10013000293400080000000000000000000000005A
:100140000000000000000000000000003D4000082A
:1001500099340008113500088D350008390A000867
:100160003D4000083D400008000000000000000085
:10017000000000000000000000000000000000007F
:10018000000000003D4000080000000000000000EA
:080190003D4000083D4000085D
:100198000348044B834202D0034B03B1184770470E
:1001A80040050020400500200000000005480649E1
:1001B8000B1AD90F01EBA301491002D0034B03B16D
:1001C8001847704740050020400500200000000047
:1001D80010B5064C237843B9FFF7DAFF044B13B187
:1001E8000448AFF300800123237010BD40050020B0
:1001F800000000005440000808B5044B1BB1044936
:100208000448AFF30080BDE80840CFE700000000D5
:10021800440500205440000880B400AF00BFBD462C
:100228005DF8047B704780B400AFFEE780B400AF90
:10023800FEE780B400AFFEE780B400AFFEE780B40D
:1002480000AF00BFBD465DF8047B704780B400AFC7
:1002580000BFBD465DF8047B704780B400AF00BFA7
:10026800BD465DF8047B704780B400AF00BFBD4653
:100278005DF8047B7047000080B483B000AF03468C
:10028800FB71FB79052B00F2928001A252F823F052
:10029800B1020008D9020008010300082903000878
:1002A8005103000879030008444B1B6803F001035D
:1002B800002B71D1414B1B68404A43F00103136086
:1002C80000BF3E4B1B6803F00203002BF9D063E02C
:1002D8003A4B1B6803F48033002B5FD1374B1B6804
:1002E800364A43F45023136000BF344B1B6803F4B1
:1002F8000033002BF9D051E0304B1B6803F08073BA
:10030800002B4DD12D4B1B682C4A43F08073136092
:1003180000BF2A4B1B6803F00073002BF9D03FE0A5
:10032800264B1B6803F08063002B3BD1234B1B68D3
:10033800224A43F08063136000BF204B1B6803F020
:100348000063002BF9D02DE01C4B5B6F03F0010319
:10035800002B29D1194B5B6F184A43F001035367EF
:1003680000BF164B5B6F03F00203002BF9D01BE0B4
:10037800124B1B6F03F00103002B17D10F4B1B6FA0
:100388000E4A43F00103136700BF0C4B1B6F03F0C9
:100398000203002BF9D009E000BF08E000BF06E027
:1003A80000BF04E000BF02E000BF00E000BF00BFE4
:1003B8000C37BD465DF8047B704700BF003802402B
:1003C80080B483B000AF0346FB71FB79052B39D8A5
:1003D80001A252F823F000BFF9030008070400083F
:1003E8001504000823040008310400083F0400082D
:1003F800174B1B68164A23F00103136022E0144BC5
:100408001B68134A23F4502313601BE0104B1B682E
:100418000F4A23F08073136014E00D4B1B680C4ADD
:1004280023F0806313600DE0094B5B6F084A23F0EB
:100438000103536706E0064B1B6F054A23F00103CF
:10044800136700BF00BF0C37BD465DF8047B7047DB
:100458000038024080B483B000AF0346FB710D4BF7
:100468009B6823F00302FB7903F003030949134354
:100478008B6000BF074B9B689B0803F00302FB7966
:100488009A42F7D100BF00BF0C37BD465DF8047B28
:10049800704700BF0038024080B584B000AF786074
:1004A8007B68072B08D87A681346DB009B1A9B00E9
:1004B8006F4A1344FB6001E06E4BFB60FB681B78DE
:1004C800012B0FD10120FFF7D7FE0120FFF7C2FF54
:1004D8000220FFF775FF0020FFF772FF664B01222D
:1004E8001A609DE0FB681B78022B40F08D80634BFF
:1004F8001B6C624A43F080531364FB685B78012BE2
:100508000CD10120FFF7B8FE5B4B01221A605B4B50
:100518005B685A4A43F4800353600BE00020FFF7FE
:10052800ABFE554B00221A60544B5B68534A23F4C8
:1005380080035360524B1B6823F04053FA68D27A09
:10054800120711464E4A0B4313604C4B9B6823F429
:100558007C4323F0F003FA68127A1201D2B21A43EC
:10056800FB685B7A9B0203F4E0531A43FB689B7AAF
:100578005B039BB2414913438B60404B5A68414B24
:100588001340FA68127902F03F021A43FB685B884D
:100598009B01194647F6C0730B401A43FB685B7909
:1005A8005B08DBB2013B1B0403F440331A43FB68CE
:1005B8009B791B0603F07C53304913434B600220A0
:1005C800FFF75AFE304B1B6823F00F02FB68DB680D
:1005D80003F00F0313432C4A43F4E0631360022033
:1005E800FFF738FFFB685B78012B09D1234B1B68A9
:1005F80003F00103002B03D00020FFF7E1FE0FE01A
:100608000120FFF7DDFE0BE00020FFF735FE00209C
:10061800FFF720FF0220FFF7D3FE0120FFF7D0FEEF
:10062800FB681B69144A5360FB685B69124A936054
:10063800FB685B7A002B02D1FB685B6902E0FB6810
:100648005B695B000C4AD360FB689B690A4A1361CB
:10065800FB689B7A002B02D1FB689B6902E0FB6870
:100668009B695B00044A536100BF1037BD4680BDDB
:1006780004000020740000205C05002000380240BF
:10068800007000400080FCF0003C024080B582B061
:1006980000AF78600320FFF793FE7B689B681B0719
:1006A80003F0E0427B685B68990147F6C0730B4032
:1006B80042EA03017B681B6803F03F02104B1B688A
:1006C8000A43C3F884200320FFF7D6FD0D4B1B68AF
:1006D800002B01D00C4A00E00C4A7B681B68B2FB77
:1006E800F3F37A68526803FB02F27B689B68B2FBFB
:1006F800F3F3044A936100BF0837BD4680BD00BFCD
:100708004C4100085C05002000127A000024F40027
:1007180080B500AF174BD3F88830164A43F47003FE
:10072800C2F88830144B1B68134A43F00103136066
:10073800114B00229A60104B1B680F4A23F08473F8
:1007480023F4803313600C4B0C4A5A600A4B1B6825
:10075800094A23F480231360074B0022DA60022041
:10076800FFF79AFE034B4FF000629A6000F008F81A
:1007780000BF80BD00ED00E00038024010300024CA
:1007880080B487B000AF00233B6100237B61022364
:10079800FB600023BB6002237B60344B9B6803F043
:1007A8000C033B613B69082B11D03B69082B44D8EB
:1007B8003B69002B03D03B69042B04D03DE02C4B54
:1007C8002C4A1A603DE02A4B2B4A1A6039E0274B25
:1007D8005B689B0D03F00103BB60244B5B6803F06F
:1007E8003F037B60BB68002B0CD0234A7B68B2FBBD
:1007F800F3F31E4A52689209C2F3080202FB03F39C
:100808007B610BE01B4A7B68B2FBF3F3174A526823
:100818009209C2F3080202FB03F37B61134B5B6886
:100828001B0C03F0030301335B00FB607A69FB6870
:10083800B2FBF3F30E4A136003E00D4B0D4A1A6046
:1008480000BF0A4B9B681B0903F00F030B4AD35CDC
:100858003B61074B1A683B6922FA03F3044A1360A9
:1008680000BF1C37BD465DF8047B70470038024066
:10087800AC0000200024F40000127A00A441000813
:1008880080B483B000AF0346FB71FB7903F01F020D
:10089800074997F907305B09012000FA02F241F88D
:1008A800232000BF0C37BD465DF8047B704700BFAE
:1008B80000E100E080B483B000AF03463960FB710B
:1008C80097F90730002B0BDA3B68DAB20C49FB7951
:1008D80003F00F03043B1201D2B20B441A7609E06D
:1008E8003B68DAB2074997F907301201D2B20B44D4
:1008F80083F8002300BF0C37BD465DF8047B7047C2
:1009080000ED00E000E100E080B582B000AF214BCF
:100918001B681B687B607B6803F02003002B1AD0E0
:100928007B6803F00403002B11D17B6803F00403F8
:10093800002B0CD1184B1B68002B27D0164B1B68BB
:10094800144A12685268D2B2104698471EE0114BFA
:100958001B685B681AE07B6803F01003002B03D068
:100968000C4B1B685B6811E07B6803F00803002BE5
:1009780003D0084B1B685B6808E07B6803F0010341
:10098800002B03D0034B1B685B68FFE700BF0837E9
:10099800BD4680BDFC4000087805002080B582B0C7
:1009A80000AF214B1B681B687B607B6803F020034A
:1009B800002B1AD07B6803F00403002B11D17B684D
:1009C80003F00403002B0CD1184B1B68002B27D015
:1009D800164B1B68144A12685268D2B210469847E0
:1009E8001EE0114B1B685B681AE07B6803F010037C
:1009F800002B03D00C4B1B685B6811E07B6803F08D
:100A08000803002B03D0084B1B685B6808E07B6871
:100A180003F00103002B03D0034B1B685B68FFE75F
:100A280000BF0837BD4680BDE44000087C050020B3
:100A380080B582B000AF214B1B681B687B607B6868
:100A480003F02003002B1AD07B6803F00403002B6B
:100A580011D17B6803F00403002B0CD1184B1B68E1
:100A6800002B27D0164B1B68144A12685268D2B262
:100A7800104698471EE0114B1B685B681AE07B68BC
:100A880003F01003002B03D00C4B1B685B6811E0CC
:100A98007B6803F00803002B03D0084B1B685B68D6
:100AA80008E07B6803F00103002B03D0034B1B68AD
:100AB8005B68FFE700BF0837BD4680BD00410008FE
:100AC8008005002080B586B000AFF860B9607A6014
:100AD8003B60434B1B68FA689A4217D1414B1B682D
:100AE8005A6C404B1B6842F010025A643E4B18681F
:100AF80000233E4A4FF4C06101F062FA3C4B1A6988
:100B0800BB68B2FBF3F2FB689A6049E0394B1B689B
:100B1800FA689A421DD1334B1B681A6C314B1B681B
:100B280042F400321A64304B186800232F4A0C2113
:100B380001F046FA304A3B6813602623FB7503230D
:100B48003B612B4B9A68BB68B2FBF3F2FB689A6077
:100B580026E02A4B1B68FA689A421ED1214B1B6873
:100B68005A6C204B1B6842F020025A641E4B1868CE
:100B78000023234A4FF4C05101F022FA214A3B686E
:100B880013604723FB7503233B61194B1A69BB6844
:100B9800B2FBF3F2FB689A6002E04FF0FF331BE010
:100BA800FB6800229A61FB6800225A61FB680022F8
:100BB8001A61FB6842F22C02DA603B68002B0AD00B
:100BC80097F9173039691846FFF774FE97F9173007
:100BD8001846FFF755FE012318461837BD4680BD55
:100BE800FC4000084C410008304100081700020092
:100BF8005C050020E44000087C0500200041000856
:100C0800180002008005002080B483B000AF78602F
:100C180000BF7B681B6803F02003002BF9D07B68BA
:100C28005B68DBB218460C37BD465DF8047B70473D
:100C380080B483B000AF786039607B685B683A68DD
:100C48001278934201D1012300E0002318460C37A3
:100C5800BD465DF8047B704780B483B000AF786010
:100C68000B46FB7000BF7B681B6803F08003002BFA
:100C7800F9D0FA787B685A6000BF0C37BD465DF83A
:100C8800047B704780B483B000AF786039600DE0B2
:100C980000BF7B681B6803F08003002BF9D03B681A
:100CA8005A1C3A601B781A467B685A603B681B7866
:100CB800002BEDD100BF00BF0C37BD465DF8047BAB
:100CC80070470EB480B58FB000AF786007F1480365
:100CD8003B6361E07B6C1B78252B52D17B6C013325
:100CE8007B647B6C1B78252B38D0252B42DB782B3B
:100CF80040DC632B3EDB633B152B3BD801A252F84B
:100D080023F000BF6F0D0008990D00087D0D000845
:100D18007D0D00087D0D00087D0D00087D0D000883
:100D28007D0D00087D0D00087D0D00087D0D000873
:100D38007D0D00087D0D00087D0D00087D0D000863
:100D48007D0D0008990D00087D0D0008990D00081B
:100D58007D0D00087D0D0008990D00082521786893
:100D6800FFF77AFF15E03B6B1A1D3A631B6887F89B
:100D780037300EE07B6C1B7819467868FFF76CFFFC
:100D880007E07B6C1B7819467868FFF765FF00E081
:100D980000BF7B6C01337B647B6C1B78002B99D183
:100DA80000BF00BF3C37BD46BDE8804003B0704778
:100DB80080B400AF0D4B1B680D4A02FB03F303F52B
:100DC8004053393323F00043084A1360074B19682E
:100DD800084BA3FB01235A0813465B001344CA1AA5
:100DE80013461846BD465DF8047B7047D0000020C6
:100DF8006D4EC641ABAAAAAA80B485B000AF03461F
:100E0800FB710023FB603BE03249FA6813465B0044
:100E180013440B441B78FA799A4215D12D49FA6884
:100E280013465B0013440B4401331B78FA799A424A
:100E38000AD12849FA6813465B0013440B4402336D
:100E48001B78FA799A4216D0224AFB6813441B7819
:100E5800FA799A4211D11F4AFB68134403331B786D
:100E6800FA799A4209D11B4AFB68134406331B7866
:100E7800FA799A4201D1012326E0FB680133FB602D
:100E8800FB68022BC0DD134B1B78FA799A4209D113
:100E9800104B1B79FA799A4204D10E4B1B7AFA79D6
:100EA8009A420ED00B4B9B78FA799A420BD1094B98
:100EB8001B79FA799A4206D1064B9B79FA799A42BC
:100EC80001D1012300E0002318461437BD465DF820
:100ED800047B7047C400002080B483B000AF0023B7
:100EE8007B6018E000233B600FE010497A681346E6
:100EF8005B001344CA183B6813441B78202B01D1AC
:100F080000230CE03B6801333B603B68022BECDDBF
:100F18007B6801337B607B68022BE3DD0123184685
:100F28000C37BD465DF8047B704700BFC400002045
:100F380080B500AF5820FFF75FFF0346002B02D0B3
:100F48004FF0FF3310E04F20FFF756FF0346002B0A
:100F580001D0012308E0FFF7BFFF0346002B01D0B3
:100F6800002301E06FF00103184680BDB0B58AB0D8
:100F780000AF78603960FFF7DBFFF860FB6813F1BA
:100F8800020F01D0FB68BBE07B68092B01D100236D
:100F9800B6E03B68002B59D05B4B7B6200233B6279
:100FA8004FE00023FB6146E058493A6A13465B006C
:100FB8001344CA18FB6913441B78202B38D15349B2
:100FC8003A6A13465B001344CA18FB6913444F225C
:100FD8001A70786A02F074FE04460D467B685A1C43
:100FE8003B68002B0CBF01230023DBB219461046D7
:100FF800FFF7BCFF0346184602F062FE02460B46A6
:1010080043EC112B45EC104B02F0ECFE53EC102B8B
:101018001046194602F0BEFE03467B623B493A6A17
:1010280013465B001344CA18FB69134420221A7044
:10103800FB690133FB61FB69022BB5DD3B6A0133B8
:101048003B623B6A022BACDD7B6A59E04FF47A7352
:10105800BB6100237B614FE000233B6146E02B49E5
:101068007A6913465B001344CA183B6913441B781A
:10107800202B38D125497A6913465B001344CA18D6
:101088003B69134458221A70B86902F019FE0446E5
:101098000D467B685A1C3B68002B0CBF01230023BC
:1010A800DBB219461046FFF761FF0346184602F007
:1010B80007FE02460B4643EC112B45EC104B02F0A1
:1010C800B9FE53EC102B1046194602F063FE034696
:1010D800BB610E497A6913465B001344CA183B6921
:1010E800134420221A703B6901333B613B69022B90
:1010F800B5DD7B6901337B617B69022BACDDBB69A4
:1011080018462837BD46B0BD18FCFFFFC4000020B4
:1011180080B582B000AF0346FB71FB7919460348DE
:1011280000F0DAFD00BF0837BD4680BDF041000879
:1011380080B500AF00F038FC0C4B1B68002B08D1C1
:101148000B4B1B680B4A126819460B4800F0C4FD8C
:101158000AE00A4B1B68002B03D0094800F0BCFDCD
:1011680002E0084800F0B8FD00BF80BD100600206E
:10117800080600200C060020F44100081406002090
:10118800084200082042000880B58AB000AF034634
:10119800FB71FB792C2B00F0C080FB796C2B03D101
:1011A800604B01221A60B9E0FB79772B06D15D4BC1
:1011B80001221A605C4B01221A60AFE05B4B1B688E
:1011C800002B04D1FB79303B584A1360A6E0584BFA
:1011D8001B68002B40F0A280FB79303B544A136017
:1011E800524B1A68524B1968524813465B00134415
:1011F80003440B441B78202B40F088804B4B1A6823
:101208004B4B19684B4813465B00134403440B448B
:1012180058221A70484B7B624FF0FF333B624FF005
:10122800FF33FB610023BB6139E000237B6130E0C1
:101238004049BA6913465B001344CA187B691344D2
:101248001B78202B22D13B49BA6913465B00134413
:10125800CA187B6913444F221A7000210020FFF737
:1012680085FEF8603349BA6913465B001344CA180F
:101278007B69134420221A70FA687B6A9A4205DD5A
:10128800FB687B62BB693B627B69FB617B690133FD
:101298007B617B69022BCBDDBB690133BB61BB6919
:1012A800022BC2DD3B6AB3F1FF3F2FD0FB69B3F1DC
:1012B800FF3F2BD01F493A6A13465B001344CA18F4
:1012C800FB6913444F221A701C4A3B6A13601C4A7C
:1012D800FB6913603B6ADBB23033FB74FB69DBB23A
:1012E8003033BB74174B1B68FA7C11461846FFF75E
:1012F800B3FC144B1B682C211846FFF7ADFC114BAF
:101308001B68BA7C11461846FFF7A6FC074B00225B
:101318001A60074B00221A6000E000BF2837BD465C
:1013280080BD00BF10060020140600200006002023
:1013380004060020C400002018FCFFFF0806002057
:101348000C060020E440000880B500AF00F0A4F9C6
:1013580000F02AFB054B1868054B00224FF4E131D9
:10136800FFF7B0FBFFF7E4FEFCE700BFE44000082E
:10137800911100087F2816D81F2914D8184B10B4CB
:101388001C688CB9F2B9CA1000EBC210184401F0FD
:10139800070190F804C001238B402CEA0303037172
:1013A8005DF8044B70477047012AF9D14FEAE10C08
:1013B80000EBCC10184401F0070301799A404A4029
:1013C8000271EDE7CA1000EBC210184401F00701E2
:1013D80090F804C001238B4043EA0C030371DFE754
:1013E800180600202DE9F041DFF8B080284F294C7D
:1013F800294EB0254FF48071384600F08DFF40210A
:10140800204600F089FF0021304601F07FF8402196
:10141800204600F07FFF4FF48071384600F07CFFD3
:101428004021204600F078FF1021304601F06EF888
:101438004021204600F06EFF4FF48071384600F0DE
:101448006BFF4021204600F067FF2946304601F037
:101458005DF84021204600F05DFF4FF4807138466A
:1014680000F058FF4021204600F056FF0135414664
:101478008022304601F024F8EDB24021204600F0E9
:1014880049FFB42D08F18008B4D1BDE8F08100BF50
:101498000000024000040240003001401C06002009
:1014A8002DE9F04F87B0561814460F460192314681
:1014B8001A461D468046FFF75DFF02973F1B4046D0
:1014C8002A463946FFF756FFDDF808A0CDF8148004
:1014D800A0442A4651464046FFF74CFF059AA2EB26
:1014E800040951462A464846FFF744FF012C59D0C3
:1014F8006300002CC3F1030351DD00249A462A46F9
:1015080045E00199631A0AEB830A4B1E013E013735
:1015180008F1FF3809F101090AF10A0A019305994E
:101528000392013463180D1B0299049301EB040B19
:1015380018463146FFF71EFF039A31462846FFF743
:1015480019FF049B039A18463946FFF713FF039ABD
:1015580039462846FFF70EFF5946039A4046FFF7DB
:1015680009FF029B039A59464846A3EB040BFFF771
:1015780001FF039A59464046FFF7FCFE039A594675
:101588004846FFF7F7FE019B039A9C4207DABAF137
:10159800000F0AEB8403B4DA03F1060ABFE7054B30
:1015A8001B6813B907B0BDE8F08F07B0BDE8F04F6E
:1015B80018E700BFD4000020A0F11F03602B5CD8FF
:1015C80032492DE9F04FD1E98193B9F1770F85B010
:1015D80044DCCDF80C90203800EBC00200EB420050
:1015E8002B49021D9A46C9EBC97B8B5C02934FEAD3
:1015F8004B0B8B1801935B464FF00008D34609F15B
:1016080009079A46012308F007050AEBE80603FADA
:1016180005F5019B01361E444C4616F814202A4055
:10162800204659461EBF2046012259460134FFF77D
:10163800A1FEA742F1D108F10108B8F1090F0BF199
:10164800010BDFD1DDE902321344104AC2F804323B
:10165800104B1B68ABB905B0BDE8F08F00220C46F3
:10166800C1F8042203F109011629CABF0749C4F8C1
:101678000812C1F808220392ADE7064B1B6823B98C
:10168800704705B0BDE8F04FACE6ABE618060020A1
:1016980030420008D4000020F8B57C4E7C4D7D4FC8
:1016A8007D4C7E490322304600F06CFE3A4600230A
:1016B8004FF48071284600F083FC3A46002340210D
:1016C800204600F07DFC00233A464021284600F0E1
:1016D80077FC2846402100F01DFE28464FF4807113
:1016E80000F01AFE6E4F2046402100F013FE2846F7
:1016F800402100F011FE00223221384601F02EF977
:101708002846402100F006FE00223846052101F057
:1017180093F828464FF4807100F0FEFD20464021E2
:1017280000F0FAFD3046AE2100F0F0FE20464021E0
:1017380000F0F0FD28464FF4807100F0EDFD2046E2
:10174800402100F0E9FD3046A22100F0DFFE2046EE
:10175800402100F0DFFD28464FF4807100F0DCFDE9
:101768002046402100F0D8FD3046A02100F0CEFEF2
:101778002046402100F0CEFD28464FF4807100F04D
:10178800CBFD2046402100F0C7FD3046C82100F0BF
:10179800BDFE2046402100F0BDFD28464FF4807173
:1017A80000F0BAFD2046402100F0B6FD3046222167
:1017B80000F0ACFE2046402100F0ACFD28464FF476
:1017C800807100F0A9FD2046402100F0A5FD3046BB
:1017D8002F2100F09BFE2046402100F09BFD28466B
:1017E8004FF4807100F098FD2046402100F094FDF0
:1017F8003046402100F08AFE2046402100F08AFD54
:1018080028464FF4807100F087FD2046402100F003
:1018180083FD3046AF2100F079FE2046402100F0DC
:1018280079FD28464FF4807100F076FD204640216E
:1018380000F072FD3046812100F068FE204640210C
:1018480000F068FD28464FF4807100F065FD2046E1
:10185800402100F061FD3046172100F057FE204678
:10186800402100F057FD28464FF4807100F054FDE8
:101878002046402100F050FD3046A62100F046FEEB
:101888002046402100F046FD0020F8BD0030014010
:10189800000002401000010000040240002D310148
:1018A800000C0040F8B5164B164F174CC3F80C0245
:1018B800164E05464FF48071384600F02DFD20463F
:1018C800402100F029FD3046812100F01FFE20460E
:1018D800402100F01FFD38464FF4807100F01CFDD8
:1018E8002046402100F018FD05F03F01304600F089
:1018F8000DFE20464021BDE8F84000F00BBD00BFBA
:101908001806002000000240000402400030014098
:10191800014BD3F80C02704718060020802070474E
:101928002020704708B590B90F484FF4807100F037
:10193800F3FC0E48402100F0EFFC0D48A62100F012
:10194800E5FDBDE808400948402100F0E3BC064831
:101958004FF4807100F0E0FC0448402100F0DCFC0A
:101968000348A721EBE700BF000002400004024043
:1019780000300140014B1860704700BF1806002076
:10198800014B1868704700BFD4000020024B186054
:1019980000B9704726E500BFD4000020014BC3E919
:1019A800810170471806002010B5064C4FF40072EC
:1019B800201D002101F0ACFF0023C4E98133BDE8FC
:1019C80010400FE5180600202DE9F04F17460D4688
:1019D800391A00291E46A3EB0503DABFC11B4FF0D5
:1019E800FF384FF00108002BD8BFAB1B83B0D4BF22
:1019F8004FF0FF394FF001098B420C9A04464FEA29
:101A0800410A4FEA430B1EDC8742ABEB010A10D0B8
:101A1800AAEB01062946204601924444FFF7AAFC96
:101A2800BAF1000FB2BFDA44B2444D44A742019A5A
:101A3800F0D129462046FFF79DFC104B1B68C3B91F
:101A480003B0BDE8F08FAE42AAEB030BF1D0ABEBCD
:101A580003072946204601924D44FFF78BFCBBF152
:101A6800000FB2BFD344BB444444AE42019AF0D104
:101A7800DFE703B0BDE8F04FB4E400BFD4000020B6
:101A88002DE9F04182B08242DDF82080CDF8008057
:101A980017460546D8BF02461C460E46D8BF3846EC
:101AA8000B46FFF791FFA642CDF800801FDA2346C8
:101AB8002A4631462846FFF787FFAF42CDF8008017
:101AC8001FDD284623463A462146FFF77DFFA642FA
:101AD800CDF800801FDA23463A4631463846FFF7EC
:101AE80073FF144B1B6803BB02B0BDE8F08133469B
:101AF8002A4621462846FFF767FFAF42CDF8008007
:101B0800DFDC2A46234621463846FFF75DFFA6421A
:101B1800CDF80080DFDB33463A4621463846FFF7EA
:101B280053FF044B1B68002BDED002B0BDE8F04128
:101B380058E400BFD40000202DE9F8439042089FE4
:101B48000546914688461E4601DD15468146B04544
:101B580002DD4346B0461E464D450EDCB045D8BFB3
:101B6800444607DC21463A4628460134FFF702FC82
:101B7800A642F7DA0135A945F0DA044B1B680BB920
:101B8800BDE8F883BDE8F8432CE400BFD40000208A
:101B980002B9704784E400BF2DE9F047DFF83C90B4
:101BA8000024151ED9F800A0C9F800400CDB064631
:101BB8000F46984601E0FFF773FC0134A5424346FF
:101BC800224639463046F6DAC9F800A0BAF1000FC5
:101BD80001D1BDE8F087BDE8F04703E4D400002058
:101BE8002DE9F84F0546406890B32B680E4692469B
:101BF80093460027C1F180094FF0800813B37F2E68
:101C080020D8BBF11F0F98BF002402D91AE04C4519
:101C180017D0D5E90213E20801FB073104F00703E6
:101C28008A5C48FA03F31A4006EB040059461EBFC3
:101C3800301901225946FFF79DFB2B680134A34256
:101C4800E5D868680BF1010BABEB0A07B842D5D8A9
:101C5800BDE8F88F0A280CD10649D1F808220932C4
:101C68000023162AC1F80432D8BF1346C1F8083237
:101C78007047A1E4180600202DE9F041144D4FF0FB
:101C880000082E68C5F80080C8B104460078B0B1D5
:101C9800104F0CE0D7F8083214F8010FC7F8048287
:101CA8000933162BC8BF4346C7F8083238B10A288B
:101CB800F0D0FFF781FC14F8010F0028F7D12E604F
:101CC8000EB9BDE8F081BDE8F041FFF78BBB00BF5E
:101CD800D4000020180600200FB42DE9F043ADF51C
:101CE800037D8AAB4A4E53F8044B3768207801933A
:101CF8000025356060B3DFF81C81252842D1627861
:101D0800252A04F101046ED0A2F16303D9B2152982
:101D18000ED8152B0CD8DFE803F060560B0B0B0B15
:101D28000B0B0B0B0B0B0B0B0B0B4F0B430B0B2466
:101D38000A2A5BD1D8F808326078C8F80452093307
:101D4800162BC8BF2B46C8F8083201340028D4D156
:101D58003760002F4ED10DF5037DBDE8F04304B088
:101D68007047019B1A1D019202A81968102201F000
:101D780035F802A8FFF780FF607801340028E7D023
:101D88002528BCD00A282ED1D8F80832C8F8045221
:101D98000933162BD4BFC8F80832C8F80852EBE745
:101DA800019B1A1D1968019202A80A2201F016F86F
:101DB80002A8FFF761FFDFE7019B1A1D186801926F
:101DC800FFF75AFFD8E7019BD3F800900433B9F125
:101DD800000F019316DB4946E6E7019B18780433A8
:101DE8000A280193A6D0FFF7E7FBC5E71046FFF7DF
:101DF800E3FBC1E7FFF7F6FA0DF5037DBDE8F04315
:101E080004B070472D20FFF7D7FBC9F10001CBE7DD
:101E1800D40000201806002008B5044B1B6803B145
:101E28009847034B01225A6108BD00BF28080020CB
:101E3800003C014008B5044B5B6803B19847034B6D
:101E480002225A6108BD00BF28080020003C01405A
:101E580008B5044B9B6803B19847034B04225A61A9
:101E680008BD00BF28080020003C014008B5044B0D
:101E7800DB6803B19847034B08225A6108BD00BFCD
:101E880028080020003C014008B5044B1B6903B139
:101E98009847034B10225A6108BD00BF280800204C
:101EA800003C014008B51D4B5A69920607D51C4BEA
:101EB8005B6903B19847194B20225A6108BD5A69DA
:101EC800500607D5164B9B6903B19847134B402220
:101ED8005A6108BD5A69110607D5114BDB6903B170
:101EE80098470E4B80225A6108BD5A69D20508D519
:101EF8000B4B1B6A03B19847084B4FF480725A6129
:101F080008BD5B699B05D9D5054B5B6A03B198474A
:101F1800024B4FF400725A6108BD00BF003C0140FB
:101F28002808002008B5244B5A69510508D5234BC9
:101F38009B6A03B19847204B4FF480625A6108BDF1
:101F48005A69120508D51D4BDB6A03B198471A4B2D
:101F58004FF400625A6108BD5A69D00408D5174B7E
:101F68001B6B03B19847144B4FF480525A6108BD5C
:101F78005A69910408D5114B5B6B03B198470E4B16
:101F88004FF400525A6108BD5A6952040BD45B6978
:101F98001B04D4D5094BDB6B03B19847064B4FF4B0
:101FA80000425A6108BD054B9B6B03B19847024B31
:101FB8004FF480425A6108BD003C014028080020C7
:101FC8002DE9F04FAF4C85B0A042CDE900328946EB
:101FD80000F0BE80AC4B984214D0AC4B984200F055
:101FE8006881AB4B984200F06D81AA4B984200F093
:101FF8004381A94B98420AD1A84A136B43F0800346
:10200800136304E0A54A136B43F002031363019BB7
:102018000768C66845688168039003F44034C3F3D1
:102028000122C3F3011AC3F3801BC3F301430293D4
:102038004FF0010EDDF808C002940023F046144664
:102048004FEA4E0219EA0E0F1FFA82FE4FEA4302C8
:1020580017D00320904027EA000726EA000621EA65
:10206800000108FA03F025EA00050BFA03F005431E
:102078000CFA02F0074304FA02F00AFA02F20643E5
:1020880011430133102BDBD1DDE90240B4F5003FE9
:102098000760C6604560816025D0009B002B53D047
:1020A800002C40F01881774B984257D003F5806395
:1020B800984200F0FB8003F58063984200F0FF80AF
:1020C80003F58063984200F0D48003F5806398425A
:1020D80000F0FE8003F5406398420CBF4FF0070BF9
:1020E8004FF0000B3BE0019B026A03F00F06436AC6
:1020F800002401254FF00F0C690019EA050F8DB275
:1021080006D00CFA04F706FA04F122EA07020A4399
:102118000434202CF0D102624FF4807100220F2782
:102128004C0019EA010FA1B206D007FA02F506FA27
:1021380002F423EA050323430432202AF0D1436240
:10214800009B002B40F0C780002005B0BDE8F08F51
:10215800524A136B43F00103136358E7A3460199EE
:102168004E4F4F4ADFF840C101F48050012601F478
:10217800005133464FF00F08019002914FF0800E46
:1021880019EA030F41D0796C41F48041796424F055
:10219800030101F1804101F59C31A0008D6800F038
:1021A8000C0008FA00FA25EA0A050BFA00F00543C4
:1021B8008D601168019819431160516821EA030183
:1021C8005160D94300284AD090681843906002981B
:1021D80000284AD0D1681943D1603249009841F8A3
:1021E8002400611E53610E2978D8DFE801F02531FB
:1021F8002A1C1515151515080808080808004FF4B5
:1022080080718CF828E3CCF804105B00102E9BB288
:102218009AD001340136B3E74FF400018CF817E384
:10222800CCF80010F1E74FF480618CF80AE3CCF8A1
:1022380000105B009BB2ECE78CF807E3CCF800E0F9
:10224800F7E74FF400718CF809E3CCF80010F0E7D9
:102258004FF480718CF808E3CCF80010E9E7906837
:102268000840906002980028B4D1D0680140D1603D
:10227800B3E74FF0030B72E7084A136B43F0100300
:102288001363C4E600000240000402400008024054
:10229800000C024000100240001C024000380240BE
:1022A800003C01402808002000E100E04FF0010B4D
:1022B80055E70D4A136B43F004031363A7E64FF089
:1022C800020B4CE7084A136B43F0080313639EE6BE
:1022D8004FF0040B43E74FF0FF3036E740218CF80E
:1022E80006E3CCF8001090E7003802400069084087
:1022F800704700BF22EA0103114041EA03418161AE
:10230800704700BF22EA0103114043EA014181619D
:10231800704700BF8161704709048161704700BF41
:10232800164A9368990730B40BD51549486800B325
:102338000C68C868451CCD60205CD0604A68013ACA
:102348004A60DB0713D50E4B9A6882B10B49CC68FB
:1023580018681A69551C1D6184549A68013A9A6074
:102368009A6822B9486820F0400048601A7530BC65
:102378007047516821F080015160E2E70030014068
:10238800D8000020F8B51B4B984202D04FF0FF3020
:10239800F8BD1646184A536C43F480535364174AE1
:1023A800044617691648174A00230D46A021FFF76F
:1023B80007FE236823F040032360002301E0082B75
:1023C800E4D01A46013327FA03F0A842F7D8094B9C
:1023D8000D4946EAC20242F4417200241A605C6068
:1023E8000822402481F823434A601A6822431A606D
:1023F800F8BD00BF00300140003802405C050020F5
:10240800000002401500020000E100E0002A09DD9A
:1024180001390A4483689B07FCD511F8013FC36062
:102428009142F7D183689A07FCD583681B06FCD4D0
:10243800C3688368704700BF6AB10A44836813F0B1
:102448008003FBD1C3608368DB07FCD5C36801F850
:10245800013B8A42F2D170470B78C360012A21DD23
:1024680000B502F1FF3E8C468E4483689B07FCD57D
:102478009CF80130C3608368DB07FCD5C3680CF89F
:10248800013BF445F1D18368DB07FCD51144C368EF
:1024980001F8013C83689907FCD583681A06FCD4C7
:1024A8005DF804FB8368DB07FCD51144C36801F8B9
:1024B800013C83689A07FCD583681B06FCD47047E7
:1024C800104B98421BD1104B10B401241C75196095
:1024D800511E596000219A60DC6019611B681B78E5
:1024E800C360436843F0C003436083689A07FCD025
:1024F80083681B06F9D4C3685DF8044B7047002352
:102508001B75FFDE00300140D8000020C1608368E1
:102518009A07FCD583681B06FCD4C368704700BFC4
:1025280070B5144688B0204A072300258DF80C3072
:102538004FF400764FF0FF339042CDE90415CDE912
:10254800063602D0184608B070BD0029FAD0002C13
:10255800F8D003681549164A23F40063036003683A
:10256800019543F040030360436843F0020343606E
:102578008B6910480092052103AA01F041F8A1B225
:10258800044601F03DF9204601F05EF90028FAD032
:10259800054B5A6822F002025A601A68002022F09D
:1025A80040021A6008B070BD00300140D800002019
:1025B800070001000064024070B58AB00723204D6F
:1025C8008DF814300DF10F0300260693A8424FF042
:1025D800FF338DF80F1007960996089302D0184616
:1025E8000AB070BD1446002AF9D003681549164A86
:1025F80023F4006303600368019643F0400303601B
:10260800436843F0020343608B6910480092052138
:1026180005AA00F0F5FFA1B2044601F0F1F8204642
:1026280001F012F90028FAD0054B5A6822F002028C
:102638005A601A68002022F040021A600AB070BD81
:1026480000300140D800002007000100006402406B
:1026580070B588B0072304914FF42061079125498C
:102668008DF80C3000264FF0FF338842CDE9056322
:1026780002D0184608B070BD1446002AF9D0436845
:102688001D4D43F002034360036823F040030360D9
:10269800036843F400630360AB694FF400621A6196
:1026A8000368164A019643F040030360052100922F
:1026B800AB69134803AA00F0A3FFA1B2044601F0D6
:1026C8009FF8204601F0C0F80028FAD0AA69094B03
:1026D800002010615A6822F002025A601A6822F437
:1026E80004621A601A6842F040021A609A68DB684D
:1026F80008B070BD00300140D8000020070001007C
:102708000064024070B58AB0284DADF80E1007235A
:102718000DF10E040021CDE906418DF81430144660
:102728004FF0FF334FF40062A8420893099202D099
:1027380018460AB070BD002CFAD043681C4D43F00F
:1027480002034360036823F04003036003681343F4
:102758000360AE69174B3261CDE90031036843F07D
:10276800400303600521AB69134805AA00F048FF40
:10277800A1B2044601F044F8204601F065F80028AB
:10278800FAD0AA69094B002010615A6822F00202A7
:102798005A601A6822F404621A601A6842F0400209
:1027A8001A609A68DB680AB070BD00BF003001404B
:1027B800D8000020070001000064024008B5054B5E
:1027C8001B6803B198474FF08042136923F01F0339
:1027D800136108BD6808002008B5054B5B6803B1A4
:1027E8009847044A136923F01F03136108BD00BF0B
:1027F800680800200004004008B5054B9B6803B139
:102808009847044A136923F01F03136108BD00BFEA
:10281800680800200008004008B5054BDB6803B1D4
:102828009847044A136923F01F03136108BD00BFCA
:1028380068080020000C0040B0F1804F10B58446B5
:1028480060D03E4B984241D03D4B984266D03D4BBC
:1028580098426FD13C4C3D483D4BC260206CDB68D0
:1028680040F0080020644FF0320E3A48A0FB030302
:10287800DCF8100001EB810120F01F0049005B0B20
:10288800CCF810000139013B8820CCF80000CCF8C6
:102898002830CCF82C102AB32F4901EB0E03402224
:1028A80083F800234FEA5E1001220EF01F0302FA9C
:1028B80003F341F82030CCF80C20CCF81420DCF8D5
:1028C800003013430020CCF8003010BD1E4C1F4BC5
:1028D800206C5A601E4B40F00200DB6820644FF009
:1028E8001D0EC2E70123CCF81430DCF8003043F0A9
:1028F8000103CCF80030DCF8003013F00103FAD102
:10290800184610BD104C114B206C1A60104B40F04B
:102918000100DB6820644FF01C0EA6E70A4C0B4B45
:10292800206C9A600A4B40F00400DB6820644FF08A
:102938001E0E9AE74FF0FF3010BD00BF00040040A4
:1029480000080040000C00400038024068080020E1
:102958005C0500205917B7D100E100E0B0F1804FC5
:1029680010B584465DD03C4B98423ED03B4B9842D4
:1029780063D03B4B98426CD13A4C3B483B4BC260CE
:10298800206CDB6840F0080020644FF0320E3848B5
:10299800A0FB0303DCF810009B0C20F01F00CCF810
:1029A80010000139013B8820CCF80000CCF8283011
:1029B800CCF82C102AB32F4901EB0E03402283F8E0
:1029C80000234FEA5E1001220EF01F0302FA03F300
:1029D80041F82030CCF80C20CCF81420DCF800307A
:1029E80013430020CCF8003010BD1E4C1E4B206C49
:1029F8005A601E4B40F00200DB6820644FF01D0E49
:102A0800C5E70123CCF81430DCF8003043F00103AB
:102A1800CCF80030DCF8003013F00103FAD1184686
:102A280010BD104C104B206C1A60104B40F0010088
:102A3800DB6820644FF01C0EA9E70A4C0A4B206C97
:102A48009A600A4B40F00400DB6820644FF01E0EC9
:102A58009DE74FF0FF3010BD000400400008004023
:102A6800000C004000380240680800205C05002087
:102A780083DE1B4300E100E0B0F1804F30B4034631
:102A880045D03048834233D02F4883424BD02F481B
:102A9800834254D10AB12E48C2602E4D2E48C468D4
:102AA800286C40F00800286432202C4DA5FB045403
:102AB8001D6901EB810125F01F054900640B1D61AB
:102AC8000139013C80251D609C62D962E2B1244C29
:102AD8002218402182F80013450900F01F02012145
:102AE80001FA02F244F825200020D96030BC704772
:102AF8000AB117484260174D1748C468286C40F05F
:102B0800020028641D20D0E7104630BC70470AB187
:102B18000F4802600F4D1048C468286C40F001004F
:102B280028641C20C1E70AB109488260094D0A4897
:102B3800C468286C40F0040028641E20B5E74FF0F4
:102B4800FF30D3E70004004000080040000C0040BC
:102B580068080020003802405C0500205917B7D1EA
:102B680000E100E001EB810103464900013901223F
:102B7800C16200205A617047B0F1804F10B402461C
:102B880025D01C4B98421AD01B4B984227D01B4B80
:102B980098422CD11A4C1B4B206CDB6840F0080083
:102BA8002064194CA4FB03439B0C03FB01F1802018
:102BB80001391060002091625DF8044B7047104C99
:102BC800104B206CDB6840F002002064E9E70C4CF5
:102BD8000C4B206CDB6840F001002064E1E7084CF6
:102BE800084B206CDB6840F004002064D9E74FF004
:102BF800FF30E1E70004004000080040000C0040FE
:102C0800003802405C05002083DE1B43012343613A
:102C1800036843F001030360704700BF036823F0B3
:102C280001030360704700BF406A7047B0F1804FEE
:102C380030B4034643D02E48834232D02D488342D5
:102C480048D02D48834250D12C4D2D482D4CE26060
:102C5800C468286C40F00800286432202A4DA5FB7F
:102C680004541D6901EB810125F01F054900640B1F
:102C78001D610139013C80251D609C62D962DAB171
:102C8800224C2218402182F80013450900F01F0247
:102C9800012101FA02F244F825200020D96030BC55
:102CA80070471848154D42601548C468286C40F0B4
:102CB800020028641D20D1E7104630BC7047114837
:102CC8000E4D02600E48C468286C40F0010028646C
:102CD8001C20C3E70B48094D82600948C468286C6A
:102CE80040F0040028641E20B8E74FF0FF30D6E714
:102CF8000004004000080040000C0040003802407A
:102D08005C050020680800205917B7D100E100E0F1
:102D1800032932D8642A30D810B5C46A04FB0222C9
:102D28001C4CA4FB024201F10C0400EB84044FEAA2
:102D3800510C520900EB8C0C62604FEAC10EDCF8B2
:102D480018200EF0080EFF2404FA0EF422EA0402FA
:102D5800682404FA0EFE42EA0E02CCF8182073B179
:102D6800026A89000F2401238C4022EA040203FA34
:102D780001F111430162184610BD00207047036A33
:102D88000F22890002FA01F123EA01010162012000
:102D980010BD00BF1F85EB51036A0F22890002FA9C
:102DA80001F123EA0103036201207047032911D8C6
:102DB800642A0FD810B4C46A074B04FB02220C31F2
:102DC80000EB8100A3FB0232520942605DF8044B1C
:102DD80001207047002070471F85EB5130B5124D18
:102DE8000346B1FBF2FC02FB1C148E469645295D96
:102DF80003F8011B6146F4D21A1A002102EBD27EB5
:102E0800012A19704FEA6E0E0DDD411E1A460B4657
:102E180002331B1A11F8014F12F801CD81F800C0D6
:102E280073451470F3DB30BD5449000810F8012BCA
:102E38005AB300B54FF0000CA2F130035FFA83FEDD
:102E4800BEF1090F09D9102910D060465DF804FBBE
:102E5800BEF1050FF9D8A2F1570310F8012B0CFBAE
:102E6800013C002AE8D160465DF804FBA2F1410369
:102E7800052BA2F1610EEBD8A2F1370310F8012B54
:102E88000CFB013C002AD7D1EDE71046704700BF84
:102E9800194B1A68920610D510B5184C226832B131
:102EA800196981F400210020C1F3C0419047124AFA
:102EB800202100239160236210BD1A68D00706D52F
:102EC8000E4A01206FF002019860116270471A687B
:102ED800510709D41A6812070DD5084A08206FF05F
:102EE8000401986011627047044A04206FF00301DE
:102EF80098601162704770470060024078080020AF
:102F08001B4B1A68120511D510B51A4C626832B1FC
:102F1800996A81F400210120C1F3C0419047144A05
:102F28004FF4006100239160636210BD1A68500677
:102F380006D5104A40206FF0020198605162704730
:102F48001A68D1050AD41A6892050FD5094A4FF4B0
:102F580000706FF00401986051627047054A4FF4A1
:102F680080706FF00301986051627047704700BF2E
:102F780000600240780800201B4B1A68920211D5A5
:102F880010B51A4CA26832B1196C81F400210220E4
:102F9800C1F3C0419047144A4FF4001100239160D7
:102FA800A36210BD1A68D00307D5104A4FF48030C9
:102FB8006FF002019860916270471A6851030AD451
:102FC8001A6812030FD5094A4FF400206FF0040164
:102FD800986091627047054A4FF480206FF00301B2
:102FE800986091627047704700600240780800203E
:102FF8001B4B1A68120111D510B51A4CE26832B190
:10300800996D81F400210320C1F3C0419047144A0F
:103018004FF0006100239160E36210BD1A6850020E
:1030280007D5104A4FF480006FF002019860D16212
:1030380070471A68D1010AD41A6892010FD5094A53
:103048004FF000706FF004019860D1627047054A34
:103058004FF080706FF003019860D162704770473D
:103068000060024078080020194B5A68920610D573
:1030780010B5184C226932B1196F81F4002104206F
:10308800C1F3C0419047124A20210023D160236335
:1030980010BD5A68D00706D50E4A01206FF002010C
:1030A800D860116370475A68510709D45A681207E3
:1030B8000DD5084A08206FF00401D86011637047E5
:1030C800044A04206FF00301D86011637047704709
:1030D80000600240780800201B4B5A68120512D580
:1030E80010B51A4C62693AB1D3F8881081F40021FE
:1030F8000520C1F3C0419047134A4FF400610023F3
:10310800D160636310BD5A68500606D50F4A402047
:103118006FF00201D860516370475A68D1050AD42C
:103128005A6892050FD5094A4FF400706FF00401F0
:10313800D86051637047054A4FF480706FF00301FF
:10314800D8605163704770470060024078080020DB
:103158001C4B5A68920212D510B51B4CA2693AB1A1
:10316800D3F8A01081F400210620C1F3C041904794
:10317800144A4FF400110023D160A36310BD5A68AC
:10318800D00307D5104A4FF480306FF00201D860A1
:10319800916370475A6851030AD45A6812030FD5CD
:1031A800094A4FF400206FF00401D860916370471A
:1031B800054A4FF480206FF00301D860916370478F
:1031C800704700BF00600240780800201C4B5A6816
:1031D800120112D510B51B4CE2693AB1D3F8B810F8
:1031E80081F400210720C1F3C0419047144A4FF0F1
:1031F80000610023D160E36310BD5A68500207D50F
:10320800104A4FF480006FF00201D860D163704714
:103218005A68D1010AD45A6892010FD5094A4FF069
:1032280000706FF00401D860D1637047054A4FF011
:1032380080706FF00301D860D1637047704700BF9A
:103248000060024078080020194B1A68920610D5D1
:1032580010B5184C226C32B1196981F40021002094
:10326800C1F3C0419047124A202100239160236690
:1032780010BD1A68D00706D50E4A01206FF002016A
:103288009860116670471A68510709D41A681207BE
:103298000DD5084A08206FF0040198601166704740
:1032A800044A04206FF00301986011667047704764
:1032B80000640240780800201B4B1A68120511D5DB
:1032C80010B51A4C626C32B1996A81F40021012060
:1032D800C1F3C0419047144A4FF400610023916044
:1032E800636610BD1A68500606D5104A40206FF074
:1032F80002019860516670471A68D1050AD41A68A5
:1033080092050FD5094A4FF400706FF004019860D8
:1033180051667047054A4FF480706FF0030198605A
:1033280051667047704700BF00640240780800206B
:103338001B4B1A68920211D510B51A4CA26C32B107
:10334800196C81F400210220C1F3C0419047144A4E
:103358004FF4001100239160A36610BD1A68D003D2
:1033680007D5104A4FF480306FF0020198609166DB
:1033780070471A6851030AD41A6812030FD5094A0C
:103388004FF400206FF00401986091667047054A79
:103398004FF480206FF00301986091667047704782
:1033A80000640240780800201B4B1A68120111D5EE
:1033B80010B51A4CE26C32B1996D81F400210320EA
:1033C800C1F3C0419047144A4FF000610023916057
:1033D800E36610BD1A68500207D5104A4FF4800002
:1033E8006FF002019860D16670471A68D1010AD45B
:1033F8001A6892010FD5094A4FF000706FF0040166
:103408009860D1667047054A4FF080706FF00301ED
:103418009860D166704770470064024078080020C1
:10342800194B5A68920610D510B5184C226D32B156
:10343800196F81F400210420C1F3C0419047124A5A
:1034480020210023D160236710BD5A68D00706D514
:103458000E4A01206FF00201D860116770475A6860
:10346800510709D45A6812070DD5084A08206FF089
:103478000401D86011677047044A04206FF0030103
:10348800D8601167704770470064024078080020D0
:103498001B4B5A68120512D510B51A4C626D3AB119
:1034A800D3F8881081F400210520C1F3C04190476A
:1034B800134A4FF400610023D160636710BD5A6856
:1034C800500606D50F4A40206FF00201D8605167B8
:1034D80070475A68D1050AD45A6892050FD5094A27
:1034E8004FF400706FF00401D86051677047054AC7
:1034F8004FF480706FF00301D860516770477047D0
:1035080000640240780800201C4B5A68920212D5C9
:1035180010B51B4CA26D3AB1D3F8A01081F400216C
:103528000620C1F3C0419047144A4FF4001100230C
:10353800D160A36710BD5A68D00307D5104A4FF46D
:1035480080306FF00201D860916770475A68510364
:103558000AD45A6812030FD5094A4FF400206FF0B5
:103568000401D86091677047054A4FF480206FF0D6
:103578000301D86091677047704700BF006402403C
:10358800780800201C4B5A68120112D510B51B4C44
:10359800E26D3AB1D3F8B81081F400210720C1F3E5
:1035A800C0419047144A4FF000610023D160E3679F
:1035B80010BD5A68500207D5104A4FF480006FF0CA
:1035C8000201D860D16770475A68D1010AD45A6895
:1035D80092010FD5094A4FF000706FF00401D860CE
:1035E800D1677047054A4FF080706FF00301D860CB
:1035F800D1677047704700BF006402407808002018
:10360800844676482DE9F0418445069C4AD07448A2
:10361800844544D1072942D8724D286B4E1E40F488
:103628008000062E28639CBF6F48361801EB4105C1
:103638006E4898BF96F924604FEAC505284488BFAC
:10364800382602254FEAC10E01F0010707EB4707AC
:103658000EF0100E0EEB470E8F0802374FF03D08A4
:1036680008FA0EFE4CF827E024F0070704F00704D8
:10367800076044611478072C29D00768D46847EAA2
:10368800446404601469576824F48032046822F0A2
:1036980040022243026087601A78072A5ED0002021
:1036A800BDE8F0810729FAD84E4D286B4E1E40F42C
:1036B8000010062E286363D84B4800EB8605865712
:1036C800AD684B4801EB4107FF003844BAE717697A
:1036D800A4F60B044FEA470E0EF4806E04EA870442
:1036E80044EA0E04D0F800E044EA0E04046054688A
:1036F800C460FC0344BF926802611A78072A48D064
:10370800DC68026842EA446242F0400202601A69D8
:103718005C6822F48033026823F04003134303609B
:103728008460079B002BBBD02C4B9C4549D02C4B6D
:103738009C4528D003682F4A43F0100303602D01ED
:103748009319EDB283F800537109012306F01F069F
:1037580003FA06F642F82160BDE8F0811C69264AA2
:10376800670007F4806702EA84023A4307683A432D
:1037780002605A68C260E203D3D59B680361D0E750
:1037880002250B269DE71D4B03EB8101079B0B646C
:10379800D0E71C69184A02EA8402640004F48064D1
:1037A80022430468224302600C4A94450ED05A68AA
:1037B800036843F080030360079B8260002BB6D147
:1037C8006EE70E4B079A43F82120B3E70B4B03EB48
:1037D80081016FF0050200200A6261E70060024083
:1037E8000064024000380240684900081064024042
:1037F8001060024000E100E0FCF7FFFF78080020BD
:10380800034688B149B90268C2F38112022A04D07A
:10381800026842F02002026000E059601A6842F033
:10382800010200201A6070476FF00100704700BF66
:10383800034628B1026822F0010200201A6070478E
:103848006FF00100704700BF0068C04300F001003E
:10385800704700BF072912D80A4B984207D00A4B75
:10386800984209D1094B03EB8101086E7047074B59
:1038780003EB8101086A70474FF0FF3070476FF023
:103888000100704700600240006402407808002090
:10389800002301461A46184600F08CB838B5084B84
:1038A800084D5B1B9C1007D0043B1D44013C55F898
:1038B80004399847002CF9D1BDE8384000F0CCBB5A
:1038C800CC4A0008C84A000870B50D4E0D4D761B4D
:1038D800B61006D0002455F8043B01349847A64298
:1038E800F9D1094E094D761B00F0B0FBB61006D091
:1038F800002455F8043B01349847A642F9D170BD1D
:10390800C04A0008C04A0008C84A0008C04A00085F
:10391800830730B548D0541E002A3FD0CAB20346A8
:1039280001E0013C3AD303F8012B9D07F9D1032CA0
:103938002DD9CDB245EA05250F2C45EA054536D9DE
:10394800A4F1100222F00F0C03F1200EE6444FEA16
:10395800121C03F1100242E9045542E902551032E3
:103968007245F8D10CF1010214F00C0F03EB0212AE
:1039780004F00F0C13D0ACF1040323F00303043359
:10398800134442F8045B9342FBD10CF003042CB1BE
:10399800CAB21C4403F8012B9C42FBD130BD6446DB
:1039A8001346002CF4D1F9E703461446BFE71A463C
:1039B800A446E0E770B4184C2568D5F848411CB314
:1039C80065681F2D25DC38B9AB1C0135656044F8E6
:1039D8002310002070BC704704EB850C0228CCF83B
:1039E8008820D4F888614FF0010202FA05F246EA0D
:1039F8000206C4F88861CCF80831E5D1D4F88C31D6
:103A08001343C4F88C31DFE705F5A674C5F84841BF
:103A1800D6E74FF0FF30DDE7984A000881F0004113
:103A280002E000BF83F0004330B54FEA41044FEA9B
:103A3800430594EA050F08BF90EA020F1FBF54EA36
:103A4800000C55EA020C7FEA645C7FEA655C00F0D2
:103A5800E2804FEA5454D4EB5555B8BF6D420CDDA3
:103A68002C4480EA020281EA030382EA000083EA26
:103A7800010180EA020281EA0303362D88BF30BDC6
:103A880011F0004F4FEA01314FF4801C4CEA11311C
:103A980002D0404261EB410113F0004F4FEA03337B
:103AA8004CEA133302D0524263EB430394EA050F06
:103AB80000F0A780A4F10104D5F1200E0DDB02FA75
:103AC8000EFC22FA05F2801841F1000103FA0EF209
:103AD800801843FA05F359410EE0A5F120050EF1CF
:103AE800200E012A03FA0EFC28BF4CF0020C43FA00
:103AF80005F3C01851EBE37101F0004507D54FF00D
:103B0800000EDCF1000C7EEB00006EEB0101B1F55C
:103B1800801F1BD3B1F5001F0CD349085FEA3000A2
:103B28004FEA3C0C04F101044FEA445212F5800FAD
:103B380080F09A80BCF1004F08BF5FEA500C50F14A
:103B4800000041EB045141EA050130BD5FEA4C0C2D
:103B5800404141EB0101013C28BFB1F5801FE9D28A
:103B680091F0000F04BF01460020B1FA81F308BFAD
:103B78002033A3F10B03B3F120020CDA0C3208DD79
:103B880002F1140CC2F10C0201FA0CF021FA02F154
:103B98000CE002F11402D8BFC2F1200C01FA02F1C4
:103BA80020FA0CFCDCBF41EA0C019040E41AA2BFE9
:103BB80001EB0451294330BD6FEA04041F3C1CDAB1
:103BC8000C340EDC04F11404C4F1200220FA04F0D1
:103BD80001FA02F340EA030021FA04F345EA03017B
:103BE80030BDC4F10C04C4F1200220FA02F001FA3D
:103BF80004F340EA0300294630BD21FA04F02946BF
:103C080030BD94F0000F83F4801306BF81F4801157
:103C18000134013D4EE77FEA645C18BF7FEA655CCA
:103C280029D094EA050F08BF90EA020F05D054EA9C
:103C3800000C04BF1946104630BD91EA030F1EBFA1
:103C48000021002030BD5FEA545C05D140004941A5
:103C580028BF41F0004130BD14F580043CBF01F598
:103C6800801130BD01F0004545F0FE4141F470017E
:103C78004FF0000030BD7FEA645C1ABF1946104659
:103C88007FEA655C1CBF0B46024650EA013406BF5A
:103C980052EA033591EA030F41F4002130BD00BF19
:103CA80090F0000F04BF0021704730B54FF48064D6
:103CB80004F132044FF000054FF0000150E700BF57
:103CC80090F0000F04BF0021704730B54FF48064B6
:103CD80004F1320410F0004548BF40424FF00001A3
:103CE8003EE700BF42004FEAE2014FEA31014FEAE6
:103CF80002701FBF12F07F4393F07F4F81F0605135
:103D0800704732F07F4208BF704793F07F4F04BF7F
:103D180041F40021704730B54FF4607401F000455C
:103D280021F000411CE700BF50EA010208BF7047BC
:103D380030B54FF000050AE050EA010208BF7047AD
:103D480030B511F0004502D5404261EB41014FF416
:103D5800806404F132045FEA915C3FF4D8AE4FF01E
:103D680003025FEADC0C18BF03325FEADC0C18BF01
:103D7800033202EBDC02C2F1200300FA03FC20FA52
:103D880002F001FA03FE40EA0E0021FA02F114449F
:103D9800BDE600BF4FEA410212F5001215D211D557
:103DA8006FF47873B3EB625212D94FEAC12343F030
:103DB800004343EA505311F0004F23FA02F018BFB2
:103DC800404270474FF00000704750EA013005D17B
:103DD80011F0004008BF6FF0004070474FF000003E
:103DE800704700BF38B52DED028BB0EE418AF0EE7A
:103DF800618A55EC104B00F045F830B9B0EE480A2E
:103E0800F0EE680ABDEC028B38BDB0EE480AF0EE61
:103E1800680A00F037F838B153EC182B20462946C9
:103E280000F0D8F80028E9D0BDEC028B45EC104B27
:103E380038BD00BF38B52DED028BB0EE418AF0EEEB
:103E4800618A55EC104B00F01DF830B9B0EE480A05
:103E5800F0EE680ABDEC028B38BDB0EE480AF0EE11
:103E6800680A00F00FF838B153EC182B20462946A1
:103E780000F092F80028E9D0BDEC028B45EC104B1D
:103E880038BD00BF51EC100B0B4631F0004106D095
:103E98000F4AA3F5801C94450DD804207047A0B1A3
:103EA8000C4A13420FD0914201D000207047B0FA5B
:103EB80080F04009704703F1FF4C0CF5E00C944585
:103EC800EED804207047032070470220704700BFD7
:103ED800FFFFDF7F0000F07F4FF0FF3C06E000BFF0
:103EE8004FF0010C02E000BF4FF0010C4DF804CD7B
:103EF8004FEA410C7FEA6C5C4FEA430C18BF7FEA3B
:103F08006C5C1BD001B050EA410C0CBF52EA430C68
:103F180091EA030F02BF90EA020F0020704710F1E8
:103F2800000F91EA030F58BF994208BF90422CBF77
:103F3800D8176FEAE37040F0010070474FEA410C70
:103F48007FEA6C5C02D150EA013C07D14FEA430C8E
:103F58007FEA6C5CD6D152EA033CD3D05DF8040BFF
:103F6800704700BF8446104662468C461946634631
:103F780000E000BF01B5FFF7B7FF002848BF10F108
:103F8800000F01BD4DF808EDFFF7F4FF0CBF01204D
:103F980000205DF808FB00BF4DF808EDFFF7EAFFC9
:103FA80034BF012000205DF808FB00BF4DF808ED84
:103FB800FFF7E0FF94BF012000205DF808FB00BF79
:103FC8004DF808EDFFF7CEFF94BF012000205DF803
:103FD80008FB00BF4DF808EDFFF7C4FF34BF012010
:103FE80000205DF808FB00BF0D480E490E4A9142BB
:103FF80004D050F8044B41F8044BF8E70B480C493F
:104008004FF00002884202D040F8042BFAE7FCF790
:104018007FFBFFF759FCFDF797F9FFF7FEBF00009C
:10402800CC4A000800000020400500204005002080
:10403800F8080020FEE70000024B13B10248FFF722
:1040480027BC704700000000A5380008F8B500BF7D
:10405800F8BC08BC9E467047F8B500BFF8BC08BC61
:044068009E467047B9
:10406C003A3D0A3D0F3D243D323D023D053D133D99
:10407C000D3D0C3D233D113D263D013D173D083DB9
:10408C00093D000000E000E000ED00E010E000E081
:10409C0000E100E0000000E0001000E0000004E09F
:1040AC00F0ED00E090ED00E030EF00E000000040AB
:1040BC000004004000080040000C004000280040B4
:1040CC00002C00400030004000340040003800401C
:1040DC00003C0040004000400044004000540040C0
:1040EC0000580040005C004000700040000001409F
:1040FC000010014000140140002001400023014049
:10410C00002C0140003001400034014000380140D7
:10411C00003C014000400140004401400048014087
:10412C000050014000000240000402400008024020
:10413C00000C024000100240001C02400030024003
:10414C0000380240003C0240006002401060024017
:10415C00286002404060024058600240706002409B
:10416C0088600240A0600240B860024000640240D7
:10417C0010640240286402404064024058640240CB
:10418C007064024088640240A0640240B86402403B
:10419C00002004E0000000500000000000000000BF
:1041AC0001020304060708090000000001020304D1
:1041BC00324A0000480000004B00000025753B25EA
:1041CC00756D000025753B2575480000257541006F
:1041DC0025754200257543002575440073000000C9
:1041EC007500000025630000726F77203D20256468
:1041FC002C20636F6C203D20256400004F68206EDE
:10420C006F212049276D207468652077696E6E6573
:10421C00722100004F6F70732C2049206C6F7365F6
:10422C002E00000013090902050000000000000028
:10423C0000000000000000000000000200009E00D2
:10424C00000000000000000000000000000004005E
:10425C000006000000060000000000000000000046
:10426C00000600005000F8005000F800500000005C
:10427C00000000000600008C009200FE01A200402D
:10428C0000000000000000071E0092005E002000ED
:10429C00F8009400F2000000000007000064009A8F
:1042AC0000AA00CC006000800000000000020000AA
:1042BC0006000000000000000000000000000000EC
:1042CC000300007C008301000000000000000000DF
:1042DC0000000003000083017C00000000000000CF
:1042EC0000000000000004000030007800300000E6
:1042FC0000000000000000000005100010007C0011
:10430C00100010000000000000000000020001C0BE
:10431C00000000000000000000000000000000048D
:10432C000000100010001000000000000000000051
:10433C0000000200008000000000000000000000EF
:10434C000000000000040001E0001C00030000005D
:10435C0000000000000000000500007C00820082CC
:10436C00007C0000000000000000000500000800B8
:10437C000400FE000000000000000000000005002A
:10438C00008400C200A2009C00000000000000009D
:10439C00000500008200920092006C0000000000FA
:1043AC000000000005000038002C002200FE000078
:1043BC00000000000000000500009E00920092002A
:1043CC00620000000000000000000500007C00926C
:1043DC0000920074000000000000000000050000C6
:1043EC000200C20032000E000000000000000000BD
:1043FC000500006C00920092006C000000000000B0
:10440C000000000500009C00920092007C0000005F
:10441C000000000000000200008800000000000006
:10442C00000000000000000000020001C8000000B5
:10443C00000000000000000000000000051000104B
:10444C0000280028004400000000000000000005C7
:10445C0000002800280028002800000000000000B0
:10446C000000050000440028002800100000000097
:10447C0000000000000500000200B20012000C0059
:10448C000000000000000000090000F80084017228
:10449C00014A014A017A0142003C00060000F80082
:1044AC00240022002400F800000000000000060098
:1044BC0000FE009200920092006C000000000000D0
:1044CC00000600007C008200820082004400000094
:1044DC0000000000060000FE0082008200C6007C86
:1044EC0000000000000000050000FE009200920099
:1044FC0092000000000000000000050000FE001209
:10450C000012001200000000000000000006000075
:10451C007C00C60082009200F60000000000000043
:10452C00060000FE00100010001000FE000000004D
:10453C00000000020000FE0000000000000000006F
:10454C00000000000000040000800080007E0000DD
:10455C00000000000000000000050000FE0010003C
:10456C002C00C2000000000000000000050000FE4E
:10457C0000800080008000000000000000000008A7
:10458C000000FE0006001800E00018000600FE0007
:10459C000000060000FE00060018006000FE00008F
:1045AC0000000000000600007C00820082008200F7
:1045BC007C00000000000000050000FE001200124C
:1045CC00000C0000000000000000000700007C0050
:1045DC0082008200C200FC00000100000000050007
:1045EC0000FE0012001200EC0000000000000000B1
:1045FC0000050000CC009200920066000000000054
:10460C000000000006000002000200FE0002000292
:10461C00000000000000000600007E00800080000A
:10462C0080007E0000000000000007000006003C37
:10463C0000E000E0001C0006000000000006000086
:10464C001E00E0003E00E0001E0000000000000024
:10465C000600008200640038006C0082000000003C
:10466C0000000006000002000C00F0000C0002002C
:10467C000000000000000600008200E20092008EA4
:10468C00008200000000000000030000FF01010197
:10469C000000000000000000000000000401000EFB
:1046AC00007000800100000000000000000000020B
:1046BC000101FF01000000000000000000000000EC
:1046CC00000004000018000C00180000000000009E
:1046DC0000000000000600010001000100010001C3
:1046EC0000010000000000000300000100020000B7
:1046FC000000000000000000000000050000E800C1
:10470C00A800A800F8000000000000000000050050
:10471C0000FE00880088007000000000000000000F
:10472C000005000070008800880088000000000070
:10473C0000000000050000700088008800FE0000EA
:10474C00000000000000000500007000A800A80098
:10475C00B0000000000000000000040800FE000A89
:10476C000002000000000000000000000005000036
:10477C00300048014801F801000000000000000072
:10478C00050000FE0008000800F800000000000012
:10479C00000000020000FA00000000000000000011
:1047AC00000000000000020001FA010000000000FF
:1047BC00000000000000000000050000FE002000CA
:1047CC00500088000000000000000000020000FE05
:1047DC0000000000000000000000000000000006C7
:1047EC000000F8000800F8000800F80000000000C5
:1047FC000000050000F80008000800F800000000A8
:10480C0000000000000500007000880088007000A7
:10481C000000000000000000050000F801480048FE
:10482C000030000000000000000000050000300017
:10483C0048004800F80100000000000000000400DF
:10484C0000F8000800080000000000000000000054
:10485C00000400009800A800E80000000000000020
:10486C00000000000400000800FC008800000000AC
:10487C0000000000000000050000780080008000AF
:10488C00F80000000000000000000400003800C028
:10489C0000380000000000000000000000060000CE
:1048AC007800C0003800C000780000000000000054
:1048BC0005000088007000700088000000000000F7
:1048CC00000000050000380040014001F800000025
:1048DC00000000000000050000C800E800B80088D7
:1048EC000000000000000000000410003800EF0180
:1048FC0001010000000000000000000003000000A7
:10490C0000FF010000000000000000000000000497
:10491C000101C70138001000000000000000000079
:10492C000000050C0004000C0008000C0000000046
:10493C00000000000003FE010201FE010000000067
:10494C0000000000000000003031323334353637BF
:10495C003839414243444546000000000C0D0E0F0F
:10496C0010112F00020000000200000006000000E1
:10497C000200000002000000020000000200000023
:10498C00393A3B3C44454600002020202020202082
:10499C0020202828282828202020202020202020E3
:1049AC0020202020202020202088101010101010F3
:1049BC00101010101010101010040404040404043F
:1049CC0004040410101010101010414141414141D9
:1049DC0001010101010101010101010101010101BB
:1049EC0001010101101010101010424242424242CB
:1049FC00020202020202020202020202020202028B
:104A0C000202020210101010200000000000000032
:104A1C00000000000000000000000000000000008A
:104A2C00000000000000000000000000000000007A
:104A3C00000000000000000000000000000000006A
:104A4C00000000000000000000000000000000005A
:104A5C00000000000000000000000000000000004A
:104A6C00000000000000000000000000000000003A
:104A7C00000000000000000000000000000000002A
:104A8C0000000000000000000000000018010020E1
:104A9C003A3D0A3D0F3D243D323D023D053D133D5F
:104AAC000D3D0C3D233D113D263D013D173D083D7F
:044ABC00093D0000B0
:084AC00041400008010200085A
:044AC800D901000808
:104ACC0000000000010000000000000000000000D9
:104ADC0000000000000000000000000000000000CA
:104AEC00020160000802020000050401030000003E
:104AFC00006CDC02001BB70000366E010201500195
:104B0C0008040700000400020200000000BD0105BB
:104B1C0080DE800200BD01050201C0000802020017
:104B2C00000400030300000000D8B805006CDC0290
:104B3C0000D8B805000000000000000000000000D4
:104B4C000000000000000000000000000000000059
:104B5C0002005001080407000004000202000000DB
:104B6C0000BD010580DE800200BD01050024F400BB
:104B7C003031323334353637383941424344454687
:104B8C0000000000202020202020202020000000F9
:104B9C00393000000100000000000000000000009F
:104BAC0000000000000000000000000000000000F9
:104BBC00F800002000000000040000000C30014050
:104BCC0000000000030000000000000000000000D6
:104BDC001801002000000000000000000404002068
:104BEC006C040020D4040020000000000000000031
:104BFC0000000000000000000000000000000000A9
:104C0C000000000000000000000000000000000098
:104C1C000000000000000000000000000000000088
:104C2C000000000000000000000000000000000078
:104C3C000000000000000000000000000000000068
:104C4C000000000000000000000000000000000058
:104C5C000000000000000000000000000000000048
:104C6C000000000000000000000000000000000038
:104C7C000000000000000000000000000000000028
:104C8C0001000000000000000E33CDAB34126DE6C5
:104C9C00ECDE05000B00000000000000000000002E
:104CAC0000000000000000000000000000000000F8
:104CBC0000000000000000000000000000000000E8
:104CCC0000000000000000000000000000000000D8
:104CDC0000000000000000000000000000000000C8
:0400000508003FF1BF
:00000001FF
